:020000040800F2
:10000000D021002065020008EF21000879200008B7
:10001000ED21000829050008A525000800000000C2
:10002000000000000000000000000000CD010008FA
:100030002B0500080000000011020008F92100084B
:100040007F0200087F0200087F0200087F0200088C
:100050007F0200087F0200087F0200087F0200087C
:100060007F0200087F0200087F0200087F0200086C
:100070007F0200087F0200087F0200087F0200085C
:100080007F0200087F0200087F0200088D2500081B
:10009000992500087F0200087F0200087F020008FF
:1000A0007F020008A12200087F0200087F020008EA
:1000B0007F020008AD2200087F0200087F020008CE
:1000C0007F0200087F0200087F0200087F0200080C
:1000D0007F020008692500087525000881250008B1
:1000E0007F0200087F0200087F0200087F020008EC
:1000F0007F0200087F0200087F0200087F020008DC
:100100007F0200087F0200087F0200087F020008CB
:100110007F0200087F0200087F0200087F020008BB
:100120007F0200087F0200087F0200087F020008AB
:1001300000F002F800F03AF80AA090E8000C8244BF
:100140008344AAF10107DA4501D100F02FF8AFF29C
:10015000090EBAE80F0013F0010F18BFFB1A43F0A5
:1001600001031847483D0000683D0000103A24BFD5
:1001700078C878C1FAD8520724BF30C830C144BF0C
:1001800004680C607047000000230024002500264E
:10019000103A28BF78C1FBD8520728BF30C148BFEA
:1001A0000B6070471FB51FBD10B510BD00F045F9BD
:1001B0001146FFF7F7FF02F007FA00F063F903B406
:1001C000FFF7F2FF03BC00F06BF90000224B196847
:1001D0000868B0E8F00F80F30988BFF36F8F4FF025
:1001E000000080F311884EF00D0E704700000000F3
:1001F00006480068006880F3088862B661B6BFF3FD
:100200004F8FBFF36F8F00DF00BF00BF08ED00E02E
:10021000EFF30980BFF36F8F0F4B1A6820E9F00FDF
:10022000106008B54FF0500080F31188BFF34F8F76
:10023000BFF36F8F03F0FAF84FF0000080F31188DE
:10024000BDE8084019680868B0E8F00F80F3098835
:10025000BFF36F8F704700BF1C000020EFF30580D5
:10026000704700000948804709480047FEE7FEE75D
:10027000FEE7FEE7FEE7FEE7FEE7FEE7FEE7FEE756
:1002800004480549054A064B704700009F220008B4
:1002900031010008D01B0020D0210020D01D0020FB
:1002A000D01D0020032A40F2308010F0030C00F033
:1002B000158011F8013BBCF1020F624498BF11F8A0
:1002C00001CB00F8013B38BF11F8013BA2F1040259
:1002D00098BF00F801CB38BF00F8013B11F00303D1
:1002E00000F05780083AC0F0088051F8043B083A03
:1002F00051F804CBA0E80810F5E7121D5CBF51F8D7
:10030000043B40F8043BAFF30080D20724BF11F850
:10031000013B11F801CB48BF11F8012B24BF00F8B5
:10032000013B00F801CB48BF00F8012B704702F0F9
:10033000FF0343EA032242EA024200F05EB84FF0B4
:10034000000200B5134694469646203922BFA0E825
:100350000C50A0E80C50B1F12001BFF4F7AF090731
:1003600028BFA0E80C5048BF0CC05DF804EB890022
:1003700028BF40F8042B08BF704748BF20F8022B65
:1003800011F0804F18BF00F8012B7047704770477D
:10039000704710B5203AC0F00B80B1E81850203AF1
:1003A000A0E81850B1E81850A0E81850BFF4F5AF15
:1003B0005FEA027C24BFB1E81850A0E8185044BF9F
:1003C00018C918C0BDE810405FEA827C24BF51F80C
:1003D000043B40F8043B08BF7047D20728BF31F800
:1003E000023B48BF11F8012B28BF20F8023B48BF51
:1003F00000F8012B70474FF000020429C0F0128072
:1004000010F0030C3FF49DAFCCF1040CBCF1020FD3
:1004100018BF00F8012BA8BF20F8022BA1EB0C019C
:10042000FFF78FBF5FEAC17C24BF00F8012B00F803
:10043000012B48BF00F8012B7047754600F02CF8DF
:10044000AE4605006946534620F00700854618B0C1
:1004500020B5FFF715FFBDE820404FF000064FF034
:1004600000074FF000084FF0000B21F00701AC46E9
:10047000ACE8C009ACE8C009ACE8C009ACE8C00908
:100480008D46704710B50446AFF300802046BDE8A6
:100490001040FFF794BE000000487047701B00201A
:1004A00001491820ABBEFEE726000200704700009D
:1004B00070B5044600688168C943C90717D18168CF
:1004C00021F00101816000F00FFD05460AE000BF48
:1004D00000F00AFD401B022804D920688068C04350
:1004E000C00706D020688068C043C007F0D0002055
:1004F00070BDA06A40F01000A062E06A40F0010008
:10050000E062012070BD0000064E4FF4FA744FF413
:100510008075204602F0DEF82946304600F0D6FC11
:10052000F7E7000000080140FEE77047F8B5002437
:10053000009490F824202546012A12D0012280F848
:1005400024204A681F23072A0DD20668776B521EA3
:1005500002EB820293409F430B6893401F437763F3
:1005600019E00220F8BD06680D2A0AD2376BD21FA7
:1005700002EB820293409F430B6893401F43376313
:1005800009E0F76A0D3A02EB820293409F430B6841
:1005900093401F43F7620A68072306680A2A0AD3B2
:1005A000F7680A3A02EB420293409F438B689340FC
:1005B0001F43F76008E0376902EB420293409F4314
:1005C0008B6893401F4337610A68102A01D0112AB3
:1005D00020D1124B02689A4217D193681B0219D49A
:1005E000936843F4000393600968102912D10C4901
:1005F0000C4A0968B1FBF2F101EB8101490000E00E
:10060000491E00910029FBD104E0816A41F02001DC
:100610008162012480F824502046F8BD0024014066
:100620001800002040420F002DE9F04104004FF077
:1006300000057FD0A06A002628B9E66284F824600D
:10064000204600F081F82046FFF732FFA16AC90674
:1006500000D420B1A06A40F01000A0626AE0A16A54
:1006600021F4885141F00201A162334923688B4291
:10067000E16904D1B1F5402F01D14FF40021277B6E
:100680004FF4807C41EA470261680A43A1686145F2
:1006900008D0012906D0002194F814E0BEF1010F22
:1006A00002D00AE06146F7E7C7B1A76A47F0200722
:1006B000A762E76A47F00107E7625F6827F46947C6
:1006C0000F435F60236899681C4F3940114399605C
:1006D000A16861450BD0012909D00CE0DFF860E08A
:1006E000A7690EEB47370F4347F40061E5E7218A1E
:1006F0000D05A5F580152168CB6A23F470032B4303
:10070000CB62216889680F4B1940914208D1E6629B
:10071000A16A21F0020141F00101A162BDE8F0816E
:10072000A06A20F0020040F01000A062E06A40F0F1
:100730000100E0620120F1E7003C0140FDF7E1FF2C
:1007400000E0FFFFFE0E1FFF00B585B00021009105
:1007500001910291039100680E49884218D10E4818
:10076000816941F400718161816901F40071049132
:10077000816941F0040181618069694600F00400EB
:1007800004900120009003200190044800F0A2FA98
:1007900005B000BD002401400010024000080140E7
:1007A00070472DE9F05F0546006800244669D0F8DF
:1007B00004908768D0F80CB0D0F810A0D0F818805A
:1007C000F10748D0F90714D001218160B80703D59B
:1007D000284600F0BDF90CE0780702D54FF400641C
:1007E00007E0380702D54FF4805402E0284600F0B5
:1007F000AEF9F80516D529684FF480708860B80501
:1008000003D5284600F0A6F90CE0780502D544F49B
:10081000005407E0380502D544F4804402E028463D
:1008200000F097F9F80316D529684FF480308860F6
:10083000B80303D5284600F08FF90CE0780302D501
:1008400044F4004407E0380302D544F4803402E065
:10085000284600F080F9300707D55FEACB6004D561
:100860002968102044F40074C86070074FF008072E
:1008700007D55FEA0B7004D52868C760284600F0EA
:1008800061F9B00706D52868C068800702D02846FD
:1008900000F059F9700607D55FEACA6004D52968E7
:1008A000102044F480640861B00607D55FEA0A703E
:1008B00004D528680761284600F046F9F00606D5F9
:1008C00028680069800702D0284600F03EF9B0038E
:1008D00008D55FEAC96005D5296810204860284618
:1008E00000F034F9F00307D55FEA097004D52868F1
:1008F0004760284600F031F9300446D55FEA497078
:1009000040D5F00504D55FEAC87001D044F0010479
:10091000B00504D55FEA887001D544F00204700583
:1009200004D55FEA487001D544F00404300529D5A8
:1009300018F0700F26D008F07000402815D006DCA3
:10094000102809D020280AD0302816D10AE05028D3
:100950000ED0602811D10EE044F008040DE044F000
:1009600010040AE044F0200407E044F0400404E0EE
:1009700044F0800401E044F480742868816921F027
:1009800070018161296804204860002C05D0686AE4
:10099000204368622846FFF703FFBDE8F09F70B56B
:1009A000040003D094F8200010B104E0012070BDD1
:1009B000204600F081F82068016841F001010160E3
:1009C00000F092FA0546052604E000F08DFA401B7F
:1009D0000A2811D820684068C007F6D0206801684E
:1009E00021F00201016000F07FFA05460BE000F003
:1009F0007BFA401B0A2806D9606A40F40030606226
:100A000084F82060D2E7206840688007EFD4207E19
:100A10000128206801683DD021F080010160607EDE
:100A200001282068016838D021F040010160A07ED3
:100A300001282068016833D021F020010160E07EA8
:100A40000128206801682ED041F010010160207F4C
:100A500001282068016829D021F008010160607F29
:100A600001282068016824D021F004010160D4E944
:100A700002010843D4E90412114308436168491E86
:100A800008432168C86100206062012084F82000CA
:100A9000002070BD41F08001C0E741F04001C5E792
:100AA00041F02001CAE721F01001CFE741F0080131
:100AB000D4E741F00401D9E710B586B000210091D8
:100AC00001910291039100681B49884232D11B4871
:100AD000C16941F00071C161C16901F00071049107
:100AE000816941F0040181618069154C00F00400C6
:100AF00004904FF4006000906946204600F0EAF848
:100B0000A014009002200190032003906946204623
:100B100000F0E0F800220521132000F0A3FB1320D1
:100B200000F092FB00220521142000F09BFB142012
:100B300000F08AFB06B010BD0064004000100240C7
:100B40000008014070477047704770477047704712
:100B500070477047704770477047704710B590F8FE
:100B600021100022022905D00421816380F8202071
:100B7000012010BD01680B6823F00E030B600168B3
:100B80000B6823F001030B6090F84030C46B012127
:100B900001FA03F3636080F8211080F820201046EA
:100BA00010BD00002DE9F05F90F82110002402290B
:100BB00003D004218163012485E001680A6822F0E2
:100BC0000E020A6001680A6822F001020A603F4EC4
:100BD0003E4FB215DFF8F4C0DFF8F090DFF8ECA07C
:100BE000DFF8E8B0DFF8E4E00168783F13011502B0
:100BF000ACF1640CA9F15009AAF13C0AABF1280B45
:100C0000AEF1140E4FF48018B14227D9B9420ED07C
:100C1000614512D049451DD0514518D0594518D0CD
:100C2000714501D1424615E0294EB14201D1012260
:100C300010E0274E1436B14201D110220AE0244EB2
:100C40002836B14206D0224A3C32914201D11A469E
:100C500000E02A461E49091F0A602BE0B94213D062
:100C6000614517D0494522D051451DD059451DD069
:100C7000714501D142461AE0B14202D14FF0807273
:100C800015E0134EB14201D1012210E0104E14368E
:100C9000B14201D110220AE00D4E2836B14206D0F1
:100CA0000B4A3C32914201D11A4600E02A460749DC
:100CB00080394A60012180F82110002180F820103D
:100CC000416B01B188472046BDE8F09F800002409B
:100CD000080402402DE9F84FDFF8C891002409F11B
:100CE000040A0AF1040B23460F270BF1040ED1E08E
:100CF0000125A54006EA0502AA4276D1DFF8A8C17F
:100D00004E68A6EB0C0866452BD00DDC032E34D0C4
:100D100005DC36B3012E19D0022E2FD11BE0112E87
:100D200016D0122E2AD119E0B8F5881F19D006DC8A
:100D3000B8F5803F15D0B8F5801F1FD111E0B8F588
:100D4000001F0ED0B8F5041F18D10AE0CB6815E0DB
:100D5000CB681B1D12E0CB6808330FE0CB680C3367
:100D60000CE08B682BB1012B4FF0080303D04561D9
:100D700004E0042302E0056100E00023FF2A01D81B
:100D8000064601E000F104064FEA840501D9A5F109
:100D90002005D6F8008007FA05FC28EA0C0803FABB
:100DA00005F548EA0508C6F800804D68ED0070D5E5
:100DB0003E4DAE6946F00106AE61AD6924F0030612
:100DC00005F0010500953A4D06EB050CDCF80850DE
:100DD000A607360F07FA06F825EA0805DFF8D480DB
:100DE000404503D14FF0000825E052E0DFF8C8800D
:100DF000404502D14FF001081DE0DFF8C0804045BA
:100E000002D14FF0020816E0DFF8B480404502D16D
:100E10004FF003080FE0DFF8AC80404502D14FF0FF
:100E2000040808E0DFF8A080404502D14FF0050833
:100E300001E04FF0060808FA06F848EA0508CCF881
:100E400008804D68D9F80060ED034D4601D5164382
:100E500000E096432E604D68DAF80060AD03554619
:100E600001D5164300E096432E604D68DBF8006024
:100E7000ED025D4601D5164300E096432E604D68B5
:100E8000DEF80060AD02754601D5164300E09643DA
:100E90002E60641C0A681646E2407FF429AFBDE864
:100EA000F88F000000040140000011100010024003
:100EB0000000014000080140000C0140001001400A
:100EC0000014014000180140001C0140C26821EAE2
:100ED00002030A4043EA0241016170470AB101611D
:100EE00070470904FBE70000014880687047000074
:100EF0000C00002070B5040025D094F83D000025BA
:100F000020B984F83C50204600F0B8F8242084F83A
:100F10003D002068016821F001010160206801683E
:100F200041F4004101602068016821F40041016042
:100F300000F0F6FA4D4A6168914201D84C4900E050
:100F40004C49884201D2012070BD4B492368B0FB57
:100F5000F1F15E6826F03F060E435E6063689342DF
:100F600006D94FF4967359434FF47A73B1FBF3F1FA
:100F70002368491C1E6A26F03F06314319626168E6
:100F8000914210D84900401EB0FBF1F2521CC2F34E
:100F90000B02042A01D2042022E0B0FBF1F0401C35
:100FA000C0F30B001CE0A268F2B301EBC10303EB3A
:100FB0000116431EB3FBF6F35B1C43F480431B0591
:100FC00049D092B301EBC10202EB0111401EB0FB0C
:100FD000F1F0401CC0F30B0040F4804040F40040AE
:100FE0002168CA694CF6FF739A431043C861D4E97B
:100FF000071001432068026822F0C002114301601B
:10100000D4E9030101432068826848F2FF339A4320
:1010100011438160D4E9050108432168CA6822F0C0
:10102000FF021043C86001E00EE016E0206801688E
:1010300041F0010101602564202084F83D00256312
:1010400084F83E50002070BD01EB4106431EB3FB07
:10105000F6F35B1CB3E70120C2E701EB4101401E40
:10106000B0FBF1F0401CC0F30B00B7E7A086010015
:1010700080841E0000093D0040420F0010B586B07C
:101080000021009101910291039100680F4988426B
:101090001AD10F4CA06940F00800A061A069694610
:1010A00000F008000490C02000901220019003205E
:1010B00003900848FFF70EFEE06940F40010E0617D
:1010C000E06900F40010049006B010BD0054004028
:1010D00000100240000C014002488168027811446F
:1010E000816070470C000020074810B5016841F08E
:1010F00010010160032000F0D5F80F2000F006F881
:1011000000F07EF8002010BD0020024000B501462E
:1011100087B00022192000F0A5F8192000F094F8FB
:101120001348816941F400618161806905A900F477
:1011300000600690684600F0D3F900F001FA0D490E
:101140000D4AB0FBF1F10D48491E0260416040F2CA
:10115000E7320021C0E90321816000F007FC10B1F3
:10116000012007B000BD054800F04CFCF9E7000085
:101170000010024040420F00002C014054020020A9
:1011800070B50E46040004D094F83D00002510B15F
:1011900006E0012070BD84F83C50204600F0D0FEEF
:1011A000242084F83D002068C16821F40051C1600A
:1011B000204601F077F92068016921F4006101619E
:1011C0002068416921F02A0141612068016941F4E8
:1011D000804101612068016921F0200101612068DE
:1011E0000169314301612068C16841F40051C16067
:1011F0002564202084F83D0084F83E00002070BD66
:101200000F4808B5816941F001018161816901F0F0
:1012100001010091C16941F08051C161C0690022A2
:1012200000F0805000900F21901E00F01BF8054840
:10123000416821F0E06141F08071416008BD00002B
:101240000010024000000140002809DB00F01F02EE
:10125000012191404009800000F1E020C0F8001118
:1012600070470000F0B40E4B1B680C46C3F302231A
:10127000C3F10705042D00D90425191D072901D242
:10128000002300E0DB1E012606FA05F1491E21407D
:1012900099409E40761E16403143F0BC01F083B960
:1012A0000CED00E0064900F0070208684FF6FF0366
:1012B000184040EA0220034A1043086070470000CB
:1012C0000CED00E00000FA052DE9F8430546007832
:1012D000354CC00754D0E0690026C00008D4E0694E
:1012E00040F08050E061E069012600F080500090FD
:1012F0002E480168C90512D40168804641F4807106
:101300000160FFF7F1FD074605E000BFFFF7ECFDC8
:10131000C01B642823D8D8F80000C005F6D5206A81
:1013200010F4407021D0A98801F4407181421CD092
:10133000206A1F49012220F440700A6000220A60DE
:101340002062C00711D0FFF7CFFD074641F2883871
:1013500008E000BFFFF7C8FDC11B414502D90320CB
:10136000BDE8F883206A8007F4D5206A696820F414
:101370004070084320621EB1E06920F08050E061B7
:101380002878800705D56068A96820F440400843A4
:1013900060602878C00605D56068696920F480001F
:1013A000084360600020DBE700100240007000404E
:1013B000400442422DE9F0470F46050061D0434EFC
:1013C000306800F00700B84209D2306820F007000A
:1013D00038433060306800F00700B84251D12868C7
:1013E0003B4C810712D5400703D5606840F4E060AC
:1013F00060602878000703D5606840F46050606042
:101400006068A96820F0F000084360602878C00791
:1014100028D06868012810D02168022810D08907D8
:1014200000292EDA616821F0030101436160FFF7B2
:101430005BFD804641F288390DE021688903EFE7C2
:101440008901EDE7FFF750FDA0EB0801494502D9FE
:101450000320BDE8F0876068696800F00C00B0EB1D
:10146000810FEFD1306800F00700B8420BD9306827
:1014700020F0070038433060306800F00700B842C1
:1014800001D00120E5E72878400705D56068E968C4
:1014900020F4E060084360602878000706D56068A3
:1014A000296920F4605040EAC100606000F058F8FB
:1014B0006168084AC1F30311515CC84006490860DD
:1014C00006480068FFF722FE0020C2E70020024025
:1014D00000100240783E0008180000201000002094
:1014E0000F2202600C4A536803F003034360536801
:1014F00003F0F0038360536803F4E063C360526851
:101500004FF4E06303EAD20202610448006800F08D
:1015100007000860704700000010024000200240F1
:101520000448054900684968044AC1F30221515C36
:10153000C84070471800002000100240883E000894
:101540000448054900684968044AC1F3C221515C56
:10155000C84070471800002000100240883E000874
:1015600012A185B00FC98DE80F0014A0144A0068BD
:1015700004905168134801F00C03042B10D0082B81
:101580000ED1C1F38343C9031DF803000AD5516886
:1015900004AAC1F34041515C0A4A5043B0FBF1F048
:1015A00005B0704708494843FAE700000203040504
:1015B000060708090A0B0C0D0E0F1010010200009F
:1015C0000010024000127A0000093D002DE9F84F9A
:1015D000040070D02078C04DC00749D06868C0F3BF
:1015E0008100012807D06868C0F38100022809D172
:1015F0006868C00306D52868800339D5606800286C
:10160000E7D035E06068B0F5803F0BD010B1B0F5A1
:10161000A02F11D0286820F480302860286820F49A
:10162000802002E0286840F480302860606890B133
:10163000FFF75AFC06460AE0286840F4802028603C
:10164000F0E700BFFFF750FC801B642873D82868C0
:101650008003F7D50CE0FFF747FC064605E000BF26
:10166000FFF742FC801B6428F0D828688003F7D479
:1016700020789A4E80074FF001094FF0000839D5C5
:10168000686810F00C0F07D06868C0F3810002286A
:1016900009D16868C00306D42868800714D520697A
:1016A000012808D110E02069B0B1C6F80090FFF71A
:1016B0001BFC074605E00AE1FFF716FCC01B0228E9
:1016C000C4D828688007F7D52868616920F0F80039
:1016D00040EAC10028600DE0C6F80080FFF704FC76
:1016E000074604E0FFF700FCC01B022823D8286847
:1016F0008007F7D4207800072CD57948A169D9B1A3
:10170000C0F80090FFF7F0FB074604E0FFF7ECFBA2
:10171000C01B02280FD8686A8007F7D571484FF4BC
:10172000FA510068B0FBF1F0009000BF0098411E34
:101730000091FAD20EE080E0C0F80080FFF7D4FB01
:10174000074604E0FFF7D0FBC01B022875D8686A83
:101750008007F7D42078400760D5E8690027C000EB
:1017600008D4E86940F08050E861E869012700F09A
:10177000805000905C480168C90513D40168834615
:1017800041F480710160FFF7AFFB824606E000BFC5
:10179000FFF7AAFBA0EB0A0064284ED8DBF8000094
:1017A000C005F5D5E06801280AD008B1052813D096
:1017B000286A20F001002862286A20F0040002E074
:1017C000286A40F001002862E06841F2883B98B145
:1017D000FFF78AFB82460BE0286A40F0040028628B
:1017E000EEE700BFFFF780FBA0EB0A0159455AD88E
:1017F000286A8007F6D50CE0FFF776FB824605E005
:10180000FFF772FBA0EB0A0159454CD8286A800704
:10181000F6D41FB1E86920F08050E861E06988B330
:101820006968C1F38101022944D00228C6F86080AA
:1018300004D0FFF759FB044638E034E0FFF754FBCF
:10184000074604E0FFF750FBC01B02282BD828688E
:101850008001F7D4206AB0F5803F05D16868A1689F
:1018600020F4003008436860D4E90801084369683F
:1018700021F4741108436860C6F86090FFF734FBE8
:10188000044606E025E000BFFFF72EFB001B022800
:1018900009D828688001F7D51BE000BFFFF724FBBB
:1018A000001B022802D90320BDE8F88F28688001B8
:1018B000F4D40EE00128F7D06868226A00F4803181
:1018C000914204D1616A00F47010884201D0012075
:1018D000EAE70020E8E70000001002400000424272
:1018E000800442421800002000700040704770479A
:1018F00070B590F83C20012A2CD0012480F83C409F
:10190000022280F83D2003685A689D6822F0700624
:101910000A6832435A60104B02689A420ED00F4B4D
:101920009A420BD0B2F1804F08D00D4B9A4205D0AD
:101930000C4B9A4202D00C4B9A4204D1496825F0D4
:1019400080031943916080F83D40002180F83C10ED
:10195000084670BD022070BD002C014000340140DB
:101960000004004000080040000C004010B50400D6
:1019700003D094F83D0010B107E0012010BD002015
:1019800084F83C00204600F01FF8022084F83D0057
:10199000211D206800F090FC012084F8460084F8A6
:1019A0003E0084F83F0084F8400084F8410084F849
:1019B000420084F8430084F8440084F8450084F829
:1019C0003D00002010BD000008B500680B498842AA
:1019D00012D10B48C16941F00201C161C069002206
:1019E00000F00200009005211D20FFF73BFCBDE840
:1019F00008401D20FFF728BC08BD0000000400407F
:101A00000010024090F83D10012901D001207047DC
:101A1000022180F83D100168CA6842F00102CA60E4
:101A200000680E4988420ED00D4988420BD0B0F1B3
:101A3000804F08D00B49884205D00B49884202D01C
:101A40000A49884204D1816801F00701062903D0C0
:101A5000016841F00101016000207047002C014045
:101A6000003401400004004000080040000C004029
:101A700070B5044690F83C00012817D0012584F881
:101A80003C50022084F83D002068826822F07702F2
:101A900022F47F4282600868502830D00DDC202874
:101AA0004DD005DC98B310283BD148E0022070BD32
:101AB000302844D0402834D139E0602828D070281C
:101AC00006D0B0F5805F2CD0B0F5005F29D10AE0D8
:101AD000CB68D1E90121206800F034FC20688168DE
:101AE00041F0770109E0CB68D1E90121206800F0DD
:101AF00029FC2068816841F48041816011E0CA6856
:101B00004968206800F030FC5021206807E016E0AA
:101B1000CA684968206800F038FC6021206800F03D
:101B20001BFC84F83D50002084F83C0070BDCA685E
:101B30004968206800F018FC40212068EFE722681F
:101B400001461046EBE7704770B50446006801692E
:101B50004FF00005C943890715D4C168C9438907F7
:101B600011D4E91E01610120207720688069800777
:101B7000204602D0FFF7E7FF04E000F098F8204687
:101B800000F096F8257720680169C943490717D402
:101B9000C168C943490713D46FF0040101610220F1
:101BA00020772068806910F4407F204602D0FFF73C
:101BB000CAFF04E000F07BF8204600F079F82577B2
:101BC00020680169C943090716D4C168C9430907D8
:101BD00012D46FF008010161042020772068C069E9
:101BE0008007204602D0FFF7AEFF04E000F05FF868
:101BF000204600F05DF8257720680169C943C906D1
:101C000017D4C168C943C90613D46FF0100101612C
:101C1000082020772068C06910F4407F204602D059
:101C2000FFF791FF04E000F042F8204600F040F892
:101C3000257720680169C943C90708D1C168C9432C
:101C4000C90704D1891E0161204600F033F82068DD
:101C50000169C943090609D4C168C943090605D405
:101C60006FF0800101612046FFF740FE20680169A6
:101C7000C943490609D4C168C943490605D46FF070
:101C800040010161204600F01FF820680169C94346
:101C900089060BD4C168C943890607D46FF02001B7
:101CA00001612046BDE87040FFF721BE70BD70475E
:101CB0007047000000680349884201D1FFF70CBA61
:101CC00070470000002C01407047704770470000CB
:101CD000F8B5026804461068D168536910F00F0F18
:101CE0004FF0000553D003F0010601F4907737431D
:101CF0005FD0C20705D0CA0503D5226C42F00102AD
:101D00002264420705D5DA0703D0226C42F00202B2
:101D10002264820705D5DA0703D0226C42F0040260
:101D20002264020707D501F02002324303D0226C5F
:101D300042F008022264226C002A34D0800604D5C6
:101D4000880602D5204600F052FB20684069216CCD
:101D5000C0F38010090700D430B3204600F02FFBF9
:101D60002068416949061BD5416921F04001416164
:101D7000A06BA8B158494163A06BFEF713FF002880
:101D800011D0A06B416B01B0BDE8F040084783065D
:101D90000FD58B060DD52046BDE8F84000F027BBD7
:101DA0002046FFF793FFF8BD2046FFF78FFF25641D
:101DB000F8BD266B2023012E52D1C60650D5CE0683
:101DC0004ED5106850680090506940062AD5A16B26
:101DD000086840680004000CEAD0A68D8642E7D966
:101DE000E0858869202818D0D06820F48070D06001
:101DF0002068416921F0010141612068416921F0B9
:101E00004001416184F83E3025632068C16821F0BB
:101E10001001C160A06BFEF7A1FEA08DE18D401AFC
:101E200081B219E0A08DE18D401A81B2E08D0028C9
:101E3000BED00029BCD0D06820F49070D06020685B
:101E4000426922F00102426184F83E302563206835
:101E5000C26822F01002C2602046FFF736FFF8BDCC
:101E600005062BD50D0629D594F83D002128F6D17D
:101E7000A068B0F5805F01D12069B0B1206A411C33
:101E80002162216800784860E08C401E0004000C4C
:101E9000E084E4D12068C16821F08001C16020683D
:101EA000C16841F04001C160F8BD206A0088C0F3FC
:101EB00008005060206A801C2062E5E74006F3D5E8
:101EC0004806F1D5D168204621F04001D16084F860
:101ED0003D3000F0D0F8F8BDAF23000870B5040025
:101EE00004D094F83D00002510B106E0012070BD3B
:101EF00084F83C50204600F023F8242084F83D006C
:101F00002068C16821F40051C160204600F0CAFA7F
:101F10002068016921F4904101612068416921F044
:101F20002A0141612068C16841F40051C160256403
:101F3000202084F83D0084F83E00002070BD0000A1
:101F4000F0B585B0002400940194029403940368D2
:101F5000424F022042490322424D4602BB4225D154
:101F60008B6943F480438B618B6903F48043049352
:101F70008B6943F004038B618969039201F00401CA
:101F800004910102CDE9001069462846FEF7A2FE41
:101F9000CDE90064694628460294FEF79BFE0022C4
:101FA00005212520FFF75EF9252028E02E4FBB42B2
:101FB00029D1CB6943F40033CB61CB6903F40033FF
:101FC00004938B6943F004038B618969039201F0E8
:101FD000040104910421CDE9001069462846FEF76A
:101FE00079FE0820CDE90004694628460294FEF7F0
:101FF00071FE002205212620FFF734F92620FFF785
:1020000023F905B0F0BD194DAB42FAD1CB6943F4C9
:102010008023CB61CB6903F4802304938B6943F065
:1020200008038B618969124D01F00801CDE9032194
:10203000CDE9006069462846FEF74CFEE814CDE97C
:102040000004694628460294FEF744FE002205215A
:102050002720FFF707F92720D1E7000000380140CB
:1020600000100240000801400044004000480040C9
:10207000000C014070477047FEE700003EB50024A9
:1020800010480094019402940D4984600160047327
:102090000475012505614FF460214460C161FEF7BC
:1020A000C3FA08B172B6FEE7CDE9004569460548B6
:1020B0000294FEF73BFA002801D072B6FEE73EBD5F
:1020C00000240140940000200E4810B50C49016026
:1020D0000421416000214FF400228160C0E9031215
:1020E0004FF4E0024261017641768176C176017754
:1020F0004177FEF754FC002801D072B6FEE710BD10
:1021000000640040C400002070B586B000241C4864
:102110000094019402940394816941F0100181615B
:10212000816901F010010491816941F02001816110
:10213000816901F020010491816941F0040181610C
:10214000816901F004010491816941F00801816114
:1021500080690C4E00F008004FF49875049000223E
:1021600029463046FEF7BAFE01200095CDE901046C
:102170000220039069463046FEF7ACFD06B070BD04
:10218000001002400008014010B586B00024164837
:102190000094019402940394049412490594C0E9B4
:1021A00000144FF6FF71C0E9024104618461FFF73A
:1021B000DDFB08B172B6FEE74FF48050009069462F
:1021C0000948FFF755FC08B172B6FEE7049404A96C
:1021D00005480594FFF78CFB002801D072B6FEE796
:1021E00006B010BD0004004040010020FEE7FEE7FD
:1021F000012000F06FFAFBE710B5502080F3118842
:10220000BFF34F8FBFF36F8F01F05EFC18B104492D
:102210004FF080500860002080F3118810BD00004E
:1022200004ED00E030B595B028216846FEF787F848
:1022300014210AA8FEF783F818210FA8FEF77FF8EB
:1022400001210804CDE90010002502950224049123
:10225000CDE907404FF4E01009906846FFF7B6F962
:1022600008B172B6FEE70AA90F2081E831004FF4E9
:102270008060CDE90D0502210AA8FFF79BF808B19F
:1022800072B6FEE74FF4004011900F940FA8FFF7CD
:102290001BF8002801D072B6FEE715B030BD7047BC
:1022A0000148FFF751BC0000540200200148FFF72D
:1022B0004BBC000040010020F0B502681C4B1D4DD6
:1022C0001D4E1E4F1E4C4FF0804C984209D0A0422C
:1022D00007D0604505D0A84203D0B04201D0B84233
:1022E00004D122F0700E4A6842EA0E02984209D0E8
:1022F000A04207D0604505D0A84203D0B04201D02B
:10230000B84203D122F44075CA682A434D6922F0CD
:1023100080022A4302608A68C2620A688262984226
:1023200001D0A04201D10969016301214161F0BDE1
:10233000002C01400004004000080040000C004058
:102340000034014010B5846842EA032224F47F443B
:102350000A432243826010BD826822F070020A4361
:1023600042F007018160704710B5036A046A24F0E7
:1023700001040462846924F0F00444EA021423F0A6
:102380000A020A438461026210BD10B5036A23F099
:10239000100303628369046A23F4704343EA023240
:1023A00024F0A00343EA01118261016210BD10B55F
:1023B000406A0021C185C184FFF788FC10BD016817
:1023C000CA6822F49072CA6001684A6922F0010268
:1023D0004A61016B012904D10168CA6822F0100228
:1023E000CA60202180F83E1000210163704708B5C3
:1023F00090F83E10222901D0022008BD82684FF4D7
:1024000080539A4201D1016921B1816A9A421BD05D
:102410004AB10AE00268816A5268C2F308020A807F
:10242000816A891C08E0026972B10268526802F090
:102430007F020A70816A491C8162C18D491E0904AC
:10244000090CC18503D019E002685268F1E7016800
:10245000CA6822F02002CA600168CA6822F4807249
:10246000CA6001684A6922F001024A61202180F8AD
:102470003E10016B012903D0FFF7FCFD002008BDD1
:10248000002101630168CA6822F01002CA60016875
:102490000A68D20602D50A6849680091818DFFF763
:1024A00014FCEBE770B5044600680169E26821F4AA
:1024B0004051114301612169A068084361690843E3
:1024C0002168CA6841F20C639A430243CA602068DB
:1024D0004169A26921F44071114341611E4920689C
:1024E000884202D1FFF72CF801E0FFF719F800EB62
:1024F000C00101EB0012606864218000B2FBF0F3C0
:10250000B3FBF1F36FF018067343B2FBF0F5B2FBC7
:10251000F0F605EB8305322303EB0515B5FBF1F56A
:10252000B6FBF1F605F0F00505EB0615B2FBF0F68B
:10253000B2FBF0F0B0FBF1F06FF01802504306EB85
:10254000800003EB0010B0FBF1F0216800F00F00F9
:102550002844886070BD0000003801404FF4FA74D0
:10256000204600F0B7F8FBE70148FFF7B1BB0000D9
:10257000880100200148FFF7ABBB0000CC01002020
:102580000148FFF7A5BB0000100200200148FEF73C
:1025900008B90000C40000200148FEF702B900009D
:1025A000C4000020FEE70907090E002804DB00F143
:1025B000E02080F80014704700F00F0000F1E020E8
:1025C00080F8141D70470000FEF78EFDFFF72AFE0D
:1025D000FFF79AFDFFF752FDFFF776FD33483249CA
:1025E0000024016049F64041C0E901144FF48041E4
:1025F000C0E9034144618461C4610462FEF77AFC6E
:1026000008B172B6FEE7294829499C304FF4E135FC
:102610000160C0E901540C26C460C0E9044684612D
:10262000C461FFF75BFC08B172B6FEE71F482149A1
:10263000E03001604FF49641C0E90114C460C0E984
:10264000044600218461FEF79BFD08B172B6FEE7E7
:102650001A4819490160C0E90154C460C0E9044640
:102660008461C461FFF73AFC08B172B6FEE7FFF778
:102670008BFD00F049F8124A0021124800F080F862
:10268000114C0F4A002120602432104800F078F8E5
:102690000B4A6060483200210D4800F071F8A060DC
:1026A00000F04EF8FEE7000000540040EC0000206F
:1026B0000038014000440040004800401002002063
:1026C0000C3E0008F1210008000000200905000868
:1026D0005D25000810B5EFF3058149B9EFF31081CE
:1026E00031B908490968022905D1EFF3118111B107
:1026F0006FF0050403E0002408B100F0E3FD20467C
:1027000010BD00006C000020EFF3058058B9EFF316
:10271000108040B909490868022801D030B109E0A9
:10272000EFF3118030B16FF00500704701200860B1
:10273000002070474FF0FF30704700006C00002011
:1027400010B5EFF3058060B9EFF3108048B90B497D
:102750000868022802D0012806D00BE0EFF31180B0
:1027600040B16FF0050010BD0220086000F012FEBD
:10277000002010BD4FF0FF3010BD00006C000020A5
:10278000F0B585B04FEA01034FF00004EFF3058187
:102790000394A1BBEFF3108189BB21490968022989
:1027A00002D1EFF3118151BB48B3802618218DF877
:1027B000104004AD42B3176807B13D4697691FB199
:1027C00039467F1E382F02D21779FF0702D000202A
:1027D00005B0F0BD576907B1BE08D2F808C0BCF11A
:1027E000000F0DD0D4685C2C18D312693AB137B100
:1027F0008DE806103246294601F027F903900DE0D6
:10280000D7685FB912694AB903AACDE90012B2B21A
:10281000294601F0EDF8012800D003940398D7E78A
:102820006C0000202DE9F041134C0F460546666907
:102830002068001D00F016FC681C07D137B1216824
:10284000BDE8F0410D48091D00F05CBC206835442E
:10285000B5424560216805D2A068BDE8F041091D78
:1028600000F038BC6068091D00F034FC206B854224
:1028700000D22563BDE8F0811C0000208C070020F9
:102880002DE9F041054600F049FC2D4C2069401C23
:10289000206120682B4F10B1E06930B32BE0256038
:1028A0002069012827D1002606EB860007EB80006F
:1028B00000F002FC761C382EF6D3234800F0FCFB17
:1028C0002148143000F0F8FB1F48283000F0F4FBDA
:1028D0001D483C3000F0F0FB1B48503000F0ECFB92
:1028E000194860601430A06005E02068E96AC06A99
:1028F000884200D82560E06A401CE0626864E86AAB
:10290000A169884200D9A06100EB800007EB80003C
:10291000291D00F0F7FB00F021FCE06900280CD035
:102920002068E96AC06A884207D208494FF080509F
:102930000860BFF34F8FBFF36F8FBDE8F0810000D9
:102940001C000020DC0200203C07002004ED00E019
:1029500038B500F0E3FB104CA068C8B90F4800F090
:10296000ABFB0E48143000F0A7FB0C48206014307D
:1029700060600A4B00202833009003F150021021C0
:102980000A2000F0D9FDA06010B105A100F064FCA0
:10299000BDE8384000F0E2BB58000020A00700204E
:1029A000546D72510000000030B4026C0B46002AD6
:1029B0000BD0C1681144C1604468A14201D30168D1
:1029C000C16030BC1846FDF76DBC30BC70472DE9C6
:1029D000F041856B174604460026026C82B1C7B1F0
:1029E000E068FDF75FFCE168206C091AE16022688D
:1029F000914202D26168081AE060022F16D017E0F7
:102A00002068A8B9606801F0C3F80646002060603D
:102A10000EE0A068FDF746FC216CA0680844A060A9
:102A20006168884204D32068A06001E005B16D1E92
:102A30006D1CA5633046BDE8F08110B5044690F8E2
:102A4000590058B101280CD002280FD0502080F333
:102A50001188BFF34F8FBFF36F8FFEE7206B00F03D
:102A600091FB2046BDE8104000F08CBB10BD00007B
:102A700010484FF44061420706D0C01D0D4920F0B8
:102A80000700411AC1F540610B4A00230144C2E925
:102A900000030839103A21F0070111604B600B6008
:102AA0000B1AC0E9001393604FF000405360D060F0
:102AB00070470000700F002080000020144E154C5D
:102AC000A6F29C474FF08058DFF84C9012E000BF10
:102AD00000F024FBF068C568281D00F0C3FA2069E7
:102AE000401E2061E068401EE06000F037FB284691
:102AF000FFF7A3FFE0680028EAD138680128F9D978
:102B0000C9F80080BFF34F8FBFF36F8FF2E700006B
:102B1000780700201C00002004ED00E070B51D4681
:102B2000049C51B1C4F80020C4E90F0101212046E2
:102B300000F036FD84F84C5070BD2460F4E72DE9B8
:102B4000F0470E46DDE90984174682469100994612
:102B5000089DA522206BFDF7EAFB6FF00301206BB7
:102B600001EB8701084420F00707780707D05020C1
:102B700080F31188BFF34F8FBFF36F8FFEE72218EA
:102B8000315C82F83410315C11B1401C1028F6D34E
:102B9000002684F84360382D00D33725E562C4E968
:102BA0001356201D00F093FA04F1180000F08FFA7C
:102BB0002461C5F138006462A061666584F85860DC
:102BC0004A465146384600F03BFA2060B8F1000F03
:102BD00001D0C8F80040BDE8F087000030B51149C9
:102BE00000E011460A688242FBD34B685C188442BD
:102BF00003D1406818444860084643681C18944252
:102C000009D1084C103C2468A24209D052681A44E9
:102C100042600A6812680260814200D0086030BDDC
:102C20000460F9E78000002070B5002441600B4D7E
:102C30000061914206D8D11A8269914206D2011DE3
:102C4000686807E09A4203D2994201D3012403E065
:102C5000011D286800F03EFA204670BD5800002093
:102C600010B5044600F05AFAA06B28B15FF00004DA
:102C700000F074FA204610BD0124F9E730B589B0A0
:102C8000304D55E00498002806DADDE90601059A82
:102C90009047049800284BDB069C606910B1201D0A
:102CA00000F0E0F902A800F0B9F8024604980A28FA
:102CB0003ED2DFE800F00505053D263705053D2637
:102CC0000598A169034601442046FFF7ADFF00B314
:102CD000616A20468847E069012829D100200090D8
:102CE0000598A169002342181946204601F05AF8B8
:102CF00078B9502080F31188BFF34F8FBFF36F8FE7
:102D0000FEE70598A06128B1811813462046FFF719
:102D10008BFF0DE0502080F31188BFF34F8FBFF37E
:102D20006F8FFEE794F82C0010B9204600F02AFAC5
:102D3000002204A9A86800F085FD0028A2D109B0EE
:102D400030BD0000580000202DE9FC410F4605462B
:102D500000F064FB01A800F061F80446019818B186
:102D600000F08EFFBDE8FC81224EAFB170680068B4
:102D7000A8B30027291B3A46B06800F081FA00F09A
:102D80007FFF0028EED11C494FF080500860BFF350
:102D90004F8FBFF36F8FE5E7A542EBD800F070FFD0
:102DA00030682746C068C468201D00F05BF9E06900
:102DB000012810D1A0692B4641193A462046FFF759
:102DC00033FF40B100200346014600902A462046CA
:102DD00000F0E8FF20B1616A20468847C2E707E0BB
:102DE000502080F31188BFF34F8FBFF36F8FFEE742
:102DF0000127BFE75800002004ED00E006484168C5
:102E0000096829B14168C968C968496801637047A0
:102E10004FF0FF31FAE700001C00002070B50546B6
:102E200000F04CFE064E04463069844203D200F0A6
:102E300009F8012000E0002028602046346170BDC0
:102E400058000020F8B5194D1FE0C068C468066836
:102E5000201D00F007F9616A20468847E0690128D3
:102E600013D1A0693044B04206D924616060211DAD
:102E7000286800F02FF908E0002003460146009082
:102E80003246204600F08EFF38B1286801680029DC
:102E9000DBD16968C5E90010F8BD502080F31188C6
:102EA000BFF34F8FBFF36F8FFEE700005800002085
:102EB00008484068401C4FF0500080F3118804D04F
:102EC000BFF34F8FBFF36F8FFEE7BFF34F8FBFF39B
:102ED0006F8FFEE788000020074C2068016841B131
:102EE000C0680021D0F80000FFF72EFFFFF7C6FEF4
:102EF000F3E701210020F7E7580000202DE9F04119
:102F0000044600F00BF994F9455004F1240609E059
:102F1000606A48B1304600F07BFE08B100F000FA6C
:102F20006D1E6DB2002DF3DC4FF0FF3684F8456066
:102F300000F014F900F0F2F894F9445004F110078D
:102F400009E0206948B1384600F062FE08B100F09F
:102F5000E7F96D1E6DB2002DF3DC84F84460BDE826
:102F6000F04100F0FBB800002DE9F04105460027D4
:102F700000F054FA314E306808B9FFF779FDF06877
:102F800005424BD1C5B3083568070ED005F00700E0
:102F9000C0F108000544680707D0502080F311886D
:102FA000BFF34F8FBFF36F8FFEE72DB3706885427D
:102FB00034D82248103001460C6801E020460C4607
:102FC0006168A94202D221680029F7D131688C4298
:102FD00024D007682168016060680837411B102908
:102FE0000FD96019420708D0502080F31188BFF331
:102FF0004F8FBFF36F8FFEE710E041606560FFF712
:10300000EDFD61687068401A7060B268904200D24D
:10301000B060F06801430020C4E9000100F030FE18
:10302000780707D0502080F31188BFF34F8FBFF38C
:103030006F8FFEE73846BDE8F08100007000002089
:1030400010B5031F4FF080741C601B1F21F001019D
:103050001960191F024B0B60143940380A6010BD0B
:10306000B12E0008D0E9013201699A60D0E901234C
:103070005A604A68824201D182684A600022026135
:103080000868401E0860086870470000034B036032
:1030900003F15C000860802010607047B8080020D1
:1030A000044B036003F15C0008604FF48070106013
:1030B00070470000140B002000F108014FF0FF32B0
:1030C000C0E90112C1600161002101607047002167
:1030D0000161704730B50B685A1C02D000F108023C
:1030E00002E0026904E02246546825689D42FAD94C
:1030F00053684B6099608A60516008610168491C9F
:10310000016030BD42684A6093688B609368596083
:10311000916008610168491C01607047502080F38C
:103120001188BFF34F8FBFF36F8F0A494868401C67
:10313000486001280CD10848006810F0FF0F07D044
:10314000502080F31188BFF34F8FBFF36F8FFEE7DE
:10315000704700008800002004ED00E0084948683E
:1031600028B1401E486001D180F31188704750207B
:1031700080F31188BFF34F8FBFF36F8FFEE700001E
:103180008800002070B5002827D0144DA0F1080455
:103190006168E868014207D1502080F31188BFF3CD
:1031A0004F8FBFF36F8FFEE722683AB1502080F354
:1031B0001188BFF34F8FBFF36F8FFEE781436160CC
:1031C00000F02CF960686968084468602046FFF7E1
:1031D00005FDBDE8704000F053BD70BD70000020DB
:1031E0004FF0E02000210161816105494FF47A72BE
:1031F0000968B1FBF2F1491E416107210161704785
:103200001800002010B5FDF729F8114910280ED339
:1032100000F1E02090F8F0030A78904207D25020A5
:1032200080F31188BFF34F8FBFF36F8FFEE709481C
:103230000068896800F4E060884207D9502080F374
:103240001188BFF34F8FBFF36F8FFEE710BD0000F3
:10325000880000200CED00E010B5084B002200BFF4
:1032600053F832401CB1521C082AF9D310BD43F860
:10327000321003EBC201486010BD00009C02002028
:1032800070B515460E460446FFF748FF94F9441002
:103290000020491C01D184F8440094F94510491CD0
:1032A00001D184F84500FFF759FFA06B28B92A46E1
:1032B000314604F1240000F051F82046BDE870408A
:1032C000FFF71CBE10B5020014D00F48806B38B158
:1032D000502080F31188BFF34F8FBFF36F8FFEE74D
:1032E00000F09CF800211046FFF79CFA00F0C8FCA3
:1032F000002807D105494FF080500860BFF34F8F79
:10330000BFF36F8F10BD00001C00002004ED00E033
:1033100002498A6A02604969416070471C000020C6
:1033200001490120486270471C00002010B50C467E
:1033300050B1094909681831FFF7CCFE2046BDE8B5
:1033400010400121FFF76EBA502080F31188BFF3BF
:103350004F8FBFF36F8FFEE71C00002070B514463F
:103360000D4668B10A4909681831FFF7CBFE0CB168
:103370004FF0FF3521462846BDE87040FFF752BAAE
:10338000502080F31188BFF34F8FBFF36F8FFEE79C
:103390001C00002030B587B00024039405AA04A9BE
:1033A00003A80494FFF772FEDDE903010094CDE960
:1033B0000110002315A11748059A00F046FB164D91
:1033C000002868631FD000F0BDFC012809D0401C14
:1033D00019D1502080F31188BFF34F8FBFF36F8F47
:1033E000FEE7502080F31188BFF34F8FBFF36F8F3C
:1033F0004FF0FF3028630120E8616C6107B0BDE841
:10340000304000F045B807B030BD000049444C459D
:1034100000000000BD2A00081C0000200248816B4B
:10342000491C8163704700001C000020164810B53D
:10343000816B11B10121416210BD0021416281699E
:10344000124A01E0B9B1491E01EB810352F8233061
:10345000002BF7D001EB810302EB830202F1080499
:1034600053685B685360A34201D15B685360DA68BC
:103470000260816110BD502080F31188BFF34F8F2F
:10348000BFF36F8FFEE700001C000020DC0200206D
:103490001CB5264908780190FF20087008788DF83F
:1034A00000009DF800009DF8002000F0F000904220
:1034B00007D0502080F31188BFF34F8FBFF36F8F79
:1034C000FEE79DF800001A4B00F05000187007202E
:1034D000986005E09DF8002052008DF80020401E05
:1034E0009DF800201206F5D49860032807D05020DC
:1034F00080F31188BFF34F8FBFF36F8FFEE74FF458
:1035000040709860019808700A48016841F47001A1
:103510000160016841F070410160FFF761FE002029
:103520005860FCF765FE00201CBD000000E400E0D0
:103530008800002020ED00E038B5049D18B153B19B
:10354000CAB181B120E0502080F31188BFF34F8FC2
:10355000BFF36F8FFEE7502080F31188BFF34F8FCA
:10356000BFF36F8FFEE7502080F31188BFF34F8FBA
:10357000BFF36F8FFEE739B1502080F31188BFF39E
:103580004F8FBFF36F8FFEE750241C46012384F852
:1035900046302B460094FFF7C1FA204638BD0000A4
:1035A00070B50D46040025D0FFF7B8FDD4E90F2013
:1035B000216802FB001161600021A1632168A16004
:1035C0000A46D4E90F01401E00FB0121E1602146BB
:1035D0004FF0FF3001F8440F487004F110008DB136
:1035E000FFF76AFD04F12400FFF766FDFFF7B6FD63
:1035F000012070BD502080F31188BFF34F8FBFF3BF
:103600006F8FFEE721690029F0D000F001FB002850
:10361000ECD004494FF080500860BFF34F8FBFF3E8
:103620006F8FE3E704ED00E02DE9FF4782B01D4610
:103630008A464FF00008040003D0BAF1000F08D00A
:1036400011E0502080F31188BFF34F8FBFF36F8FCD
:10365000FEE7206C38B1502080F31188BFF34F8F04
:10366000BFF36F8FFEE7022D0AD1E06B012807D070
:10367000502080F31188BFF34F8FBFF36F8FFEE7A9
:1036800000F00EFA3F4F4FF000094FF0805648B956
:10369000049838B1502080F31188BFF34F8FBFF3E7
:1036A0006F8FFEE7FFF73AFDA06BE16B884207D30F
:1036B000022D05D00498D0B1B8F1000F1AD01EE049
:1036C0002A4651462046FFF782F9616A19B104F192
:1036D000240000F09DFA20B13E60BFF34F8FBFF38E
:1036E0006F8FFFF73BFD012006B0BDE8F087FFF7C5
:1036F00035FD22E06846FFF70BFE4FF00108FFF7AB
:103700002DFDFFF78BFEFFF709FD94F94400401CE7
:1037100001D184F8449094F94500401C01D184F80B
:103720004590FFF71BFD04A9684600F027F930B16A
:103730002046FFF7E3FB00F0A3FA0020D4E7FFF7F1
:10374000EDFCA06BE16B884213D1FFF707FD04F19C
:1037500010000499FFF7EAFD2046FFF7CFFB00F0C9
:103760008FFA00289ED13E60BFF34F8FBFF36F8F5B
:1037700098E7FFF7F3FC2046FFF7C0FB00F080FA64
:1037800090E7000004ED00E02DE9F0471F46904669
:103790008946040003D0B9F1000F08D011E0502091
:1037A00080F31188BFF34F8FBFF36F8FFEE7206C5C
:1037B00038B1502080F31188BFF34F8FBFF36F8F64
:1037C000FEE7022F0AD1E06B012807D0502080F3DA
:1037D0001188BFF34F8FBFF36F8FFEE7FFF712FD26
:1037E0005020EFF3118680F31188BFF34F8FBFF3A2
:1037F0006F8FA06BE16B884206D3022F04D00020AC
:1038000086F31188BDE8F08794F945503A46494659
:103810002046FFF7DCF8681C04D06D1C84F8455086
:103820000120EDE7606A0028FAD004F1240000F0DE
:10383000EFF90028F4D0B8F1000FF1D00121C8F859
:103840000010EDE72DE9F747002683B08A46040013
:1038500003D0BAF1000F08D011E0502080F3118896
:10386000BFF34F8FBFF36F8FFEE7206C38B150204E
:1038700080F31188BFF34F8FBFF36F8FFEE700F027
:103880000FF9DFF8F4804FF000094FF0805748B986
:10389000059838B1502080F31188BFF34F8FBFF3E4
:1038A0006F8FFEE7FFF73AFCA56BC5B15146204686
:1038B000FFF77AF86D1EA563206950B104F110007E
:1038C00000F0A6F928B1C8F80070BFF34F8FBFF31E
:1038D0006F8FFFF743FC012006B0BDE8F087059825
:1038E00008B11EB106E0FFF739FC27E06846FFF794
:1038F0000FFD0126FFF732FCFFF790FDFFF70EFCEE
:1039000094F94400401C01D184F8449094F9450096
:10391000401C01D184F84590FFF720FC05A96846BA
:1039200000F02CF8002820460AD0FFF7E7FA00F054
:10393000A7F92046FFF794F90028B3D00020CBE781
:10394000FFF78EF990B104F124000599FFF7EEFC22
:103950002046FFF7D3FA00F093F90028A2D1C8F867
:103960000070BFF34F8FBFF36F8F9BE72046FFF7C9
:10397000C5FA00F085F995E704ED00E02DE9F04186
:103980000C46050011D0C4B1FFF7C8FB174B5A69AC
:103990006E682068911B471C17D02F689B6A9F4256
:1039A00019D0964217D8012410E0502080F31188D6
:1039B000BFF34F8FBFF36F8FFEE7502080F3118866
:1039C000BFF34F8FBFF36F8FFEE70024FFF7C6FBF7
:1039D0002046BDE8F081884205D9401A206028467B
:1039E000FFF796FCF1E700202060DCE71C000020D8
:1039F0002DE9FF5F8346DDE90E87994616468A4624
:103A00009000FFF7B1FA05001CD05C20FFF7ACFA7C
:103A1000040014D00020256384F85900CDE9024049
:103A2000CDE900874B46324651465846FFF787F8A6
:103A30002046FEF725FF012004B0BDE8F09F284690
:103A4000FFF7A0FB4FF0FF30F6E7F0B585B0DDE9FA
:103A50000B640A9DA6B1DCB15C27009726630226A1
:103A600084F85960002604AFCDE90246CDE900573D
:103A7000FFF765F82046FEF703FF049805B0F0BD98
:103A8000502080F31188BFF34F8FBFF36F8FFEE795
:103A9000502080F31188BFF34F8FBFF36F8FFEE785
:103AA0000548C16919B1806B18B100207047012029
:103AB00070470220704700001C0000200148406948
:103AC000704700001C0000202DE9F0412E4C00271B
:103AD000A06B40B1206A401C2062606A00B10127DF
:103AE0003846BDE8F0816669761C666113D160686E
:103AF000006838B1502080F31188BFF34F8FBFF3B7
:103B00006F8FFEE76068A1686160A060A06A401CDA
:103B1000A062FFF773F9206BDFF87080864209D34B
:103B20006068006880B16068C068C568686886427F
:103B30000DD220632068C06A00EB800158F8210094
:103B40000128CAD90127C8E74FF0FF30F1E7281D47
:103B5000FFF788FAA86A18B105F11800FFF782FA92
:103B6000E86AA169884200D9A06100EB800108EBF6
:103B70008100291DFFF7C6FAE86A2168C96A8842F0
:103B8000CED30127CCE700001C000020DC0200207F
:103B900070B504004FF0000133D01B4D28688442FB
:103BA00007D0502080F31188BFF34F8FBFF36F8F82
:103BB000FEE7206D38B1401E2065E36CE26A9A4250
:103BC0001FD040B11DE0502080F31188BFF34F8F0C
:103BD000BFF36F8FFEE7201DFFF744FAE06CE06251
:103BE000C0F13800A061E06AA969884200D9A861E3
:103BF000064900EB800001EB8000211DFFF782FAEF
:103C00000121084670BD00001C000020DC020020DD
:103C100070B5C068C46854B104F118000646FFF7D7
:103C200021FA144DA86B50B13146134815E05020CD
:103C300080F31188BFF34F8FBFF36F8FFEE7201D16
:103C4000FFF710FAE06AA969884200D9A8610B4918
:103C500000EB800001EB8000211DFFF753FAE06AC2
:103C60002968C96A884202D90120686270BD0020B3
:103C700070BD00001C00002064070020DC02002052
:103C80002DE9F0472C4D00242746A86B38B1FFF7EB
:103C900045FAA86B401EA863A86B40B146E05020CF
:103CA00080F31188BFF34F8FBFF36F8FFEE7296951
:103CB000224E0120D1B3A6F5916980463068E0B16B
:103CC000F068C46804F11800FFF7CCF9201DFFF775
:103CD000C9F9E06AA969884200D9A86100EB8001AE
:103CE00009EB8100211DFFF70DFAE06A2968C96A16
:103CF0008842E3D3C5F82480E0E70CB1FFF77EF8F3
:103D00002C6A4CB14FEA0806FFF7DEFE00B16E6286
:103D1000641EF9D100202862686A38B10849012779
:103D200038070860BFF34F8FBFF36F8FFFF716FAA6
:103D30003846BDE8F08700001C0000206407002022
:103D400004ED00E010B586B0FEF702FE114CA0684D
:103D5000B8B100200390049005AA04A903A8FFF7B6
:103D60009FF9DDE9032102208DE8070000230AA165
:103D70000B48059AFFF769FEE06010B106B001201C
:103D800010BD502080F31188BFF34F8FBFF36F8FAA
:103D9000FEE7000058000020546D72205376630047
:103DA000D92E00082DE9FF411E46134602000A9D48
:103DB0004FF0000016D0144CA768002F0FD0CDE9AB
:103DC00000130292062917DAFFF76AFE02284FF065
:103DD00000030FD000226946A068FFF725FC04B05D
:103DE000BDE8F081502080F31188BFF34F8FBFF3FF
:103DF0006F8FFEE72A46EEE70023324669463846D3
:103E0000FFF7C2FCEBE7000058000020A03E0008CE
:103E100000000000000000000000000000000000A2
:103E20000002000018000000000000000000000078
:103E3000903E0008000000000000000000000000AC
:103E40000000000000020000280000000000000048
:103E500000000000983E0008000000000000000084
:103E60000000000000000000000200002800000028
:103E70000000000000000000000000000000000042
:103E80000102030406070809000000000102030400
:103E90004150505461736B005544535461736B002F
:103EA00064656661756C745461736B00CC3E000888
:103EB00000000020940000006C010008603F000832
:103EC000940000203C210000880100080000000050
:103ED00000000000000000000100000010000000D1
:103EE000000000000024F4000000000000000000BA
:103EF00000000000000000000000000000000000C2
:103F000000000000000000000000000000000000B1
:103F100000000000000000000000000000000000A1
:103F20000000000000000000000000000000000091
:103F30000000000000000000000000000000000081
:103F40000000000000000000000000000000000071
:103F50000000000000000000AAAAAAAA00000000B9
:0400000508000131BD
:00000001FF
